:0300000002126188
:0C126100787FE4F6D8FD7581200212A809
:1000460044616E676572207761726E696E672144DE
:100056006574656374696F6E2069732061626E6F83
:10006600726D616C2E20200054656D70657261742E
:100076007572652072616E67652069732000487528
:100086006D69646974792072616E67652069732091
:1000960000204275742063757272656E74207465F3
:1000A6006D70657261747572652076616C75652018
:1000B6006973203A200068756D69646974792076E1
:1000C600616C7565206973203A2000CEC2B6C800FF
:1000D600A1E600CAAAB6C800545F553A00545F4468
:1000E6003A00485F553A00485F443A004F4B00419A
:1000F6005445310D00C1ACBDD3D6D02E2E2E002BCB
:10010600435245473A20312C31002B435245473A5A
:1001160020312C350041542B435245473D310D00CB
:10012600D7A2B2E1B5BDB7FECEF1C9CC0041542B82
:10013600435245473F0D00B7FECEF1C9CCD7B4CCEC
:10014600AC4F4B004154480D00B2A6BAC50041540D
:100156004431353131383130343932373B0D00B521
:10016600E7BBB03135313138313034393237002BD5
:10017600434C43433A20312C302C300041542B431E
:100186004C43430D00B2A6BAC5D6D02E00B2A6BACD
:10019600C5D6D02E2E00B2A6BAC5D6D02E2E2E008B
:1001A600B2A6BAC5D6D02E2E2E2E00B2A6BAC5D667
:1001B600D02E2E2E2E2E00B2A6BAC5D6D02E2E2E7C
:1001C6002E2E2E00B9D2B6CFB5E7BBB000B7A2CB64
:1001D600CDB6CCD0C52E00B7A2CBCDB6CCD0C52ED1
:1001E6002E00B7A2CBCDB6CCD0C52E2E2E004154B4
:1001F6002B434D47443D310D0041542B434D47465B
:100206003D310D00B7A2CBCDB6CCD0C52E2E2E2EAD
:100216000041542B434D47533D223135313138315E
:100226003034393237220D003E002B434D47530000
:10023600B6CCD0C5B7A2CBCDB3C9B9A62E002B4339
:100246004D544900CAD5B5BDB6CCD0C52E2E2E000C
:1002560041542B434D47523D310D00D6B8B6A8BA8E
:10026600C5C2EB006C65646F6E00BFAAB5C6006CB4
:1002760065646F666600B9D8B5C6006D657373614F
:10028600676500CEDED0A7D6B8C1EE0044454C2047
:100296004D45535341474500C4B0C9FABAC5C2EBF0
:0F02A60000D2BABEA7B3F5CABCBBAF2E2E2E0036
:1002B500C101C100410194004101C0004C01A631BA
:1002C50035313138313034393237004D019800003D
:1002D50000000000000000000000004D01B33135B2
:0B02E50031313831303439323700003D
:0C000E007F017EA27D59DDFEDEFCDFFAE2
:01001A0022C3
:0A17C200C2957F05121717D2952279
:0B0972009001C1EFF0A3EDF0A3EBF04B
:10097D007BFF7A0079461215777BFF7A00796E122C
:10098D0015779001C1E0FD75F00A8424309001CAFD
:10099D00F0ED75F00A84E5F02430A3F09001CAE083
:1009AD00FF1217B79001CBE0FF1217B77F63121735
:1009BD00B77F7E1217B79001C2E0FD75F00A84244F
:1009CD00309001C9F0ED75F00A84E5F02430A3F004
:1009DD009001C9E0FF1217B79001CAE0FF1217B7D7
:1009ED007F631217B77F2E1217B77BFF7A007984BA
:1009FD001215779001C3E0FD75F00A842430900143
:100A0D00CCF0ED75F00A84E5F02430A3F09001CC24
:100A1D00E0FF1217B79001CDE0FF1217B77F251237
:100A2D0017B77F7E1217B79001C4E0FD75F00A84E9
:100A3D0024309001CBF0ED75F00A84E5F02430A35D
:100A4D00F09001CBE0FF1217B79001CCE0FF121729
:100A5D00B77F251217B77F2E1217B77BFF7A007954
:100A6D00971215779001C5E0FD75F00A842430903A
:100A7D0001C7F0ED75F00A84E5F02430A3F0900184
:100A8D00C7E0FF1217B79001C8E0FF1217B77F63D9
:100A9D001217B77F2E1217B77BFF7A0079BC12158C
:100AAD00779001C6E0FD75F00A8424309001C8F0FE
:100ABD00ED75F00A84E5F02430A3F09001C8E0FF55
:100ACD001217B79001C9E0FF1217B77F251217B79C
:050ADD007F2E0217B797
:0B0D41009001F3EBF0A3EAF0A3E9F04F
:100D4C00E49001F9F0A3F09001F3E0FBA3E0FAA327
:100D5C00E0F99001F9E0FFFD3395E08D82F5831207
:100D6C000E2460089001F9E004F080DBEF30E01C09
:100D7C009001F3E0FBA3E0FAA3E0F99001F9E0FFA6
:100D8C003395E08F82F5837446120E51E49001FA8C
:100D9C00F09001F9E0FFA3E0FED3EF6480F8EE647D
:100DAC0080985073EEFF3395E0FEEF2401FDE43E96
:100DBC00FC9001F3E0FBA3E0FAA3E0F98D828C83B5
:100DCC00120E24FD9001F6E0FBA3E0FAA3E0F98FEC
:100DDC00828E83ED120E519001F3E0FBA3E0FAA397
:100DEC00E0F99001FAE0FF3395E0FE8F82F5831273
:100DFC000E24FDEF2401FFE43EFE9001F6E0FBA380
:100E0C00E0FAA3E0F98F828E83ED120E519001FA75
:070E1C00E02402F0020D9D2D
:010E230022AC
:0A1368009001E4E0FF9001EDE0FDCC
:101372009001C1EFF0A3EDF07A007BD17D01E4FF93
:101382001215019001C1E075F00A842430FF1200A9
:10139200349001C1E075F00A84E5F02430FF1200B8
:1013A200347A007BD67D017F031215017A007BD946
:1013B2007D017F041215019001C2E075F00A8424B8
:1013C20030FF1200349001C2E075F00A84E5F02487
:0A13D20030FF1200347F25020034C2
:100FB6007A007BDE7D03E4FF1215019001A5E07542
:100FC600F00A842430FF1200349001A5E075F00A7F
:100FD60084E5F02430FF1200347F181200347A00C2
:100FE6007BE37D04E4FF1215019001B2E075F00A7F
:100FF600842430FF1200349001B2E075F00A84E5D3
:10100600F02430FF1200347F191200347A007BE896
:101016007D037F04121501900195E075F00A842482
:1010260030FF120034900195E075F00A84E5F02453
:1010360030FF1200347F181200347A007BED7D04F5
:101046007F04121501900196E075F00A842430FFA2
:10105600120034900196E075F00A84E5F02430FF22
:081066001200347F190200346E
:1007FB001217CC7F021217417BFF7A0079F2121588
:10080B00AB401E7BFF7A0079F51215777A007BFBE4
:10081B007D02E4FF1215017F011217411217CC80E4
:10082B00D712178A804B7BFF7A0179051215AB40E3
:10083B00457BFF7A0179101215AB403A7BFF7A01A9
:10084B00791B1215777A017B267D02E4FF121501C5
:10085B007F011217411217CC7BFF7A0179331215E6
:10086B00777A017B3D7D02E4FF1215017F011217A0
:10087B00411217CC80B012178A7BFF7A01794A128A
:10088B0015771217C27A017B4F7D02E4FF12150117
:10089B007F021217411217CC7BFF7A017954121584
:1008AB00777A017B657D02E4FF1215017F02121737
:1008BB00411217CC7BFF7A0179751215AB500302ED
:1008CB000971900194E06401600302097112178AA7
:1008DB007BFF7A0179821215771217C27A017B8B13
:1008EB007D02E4FF1215017F021217417A017B93FF
:1008FB007D02E4FF1215017F021217417A017B9CE6
:10090B007D02E4FF1215017F021217417A017BA6CB
:10091B007D02E4FF1215017F021217417A017BB1B0
:10092B007D02E4FF1215017F021217417A017BBD94
:10093B007D02E4FF1215017F021217411217CC1230
:10094B0017C27A017BCA7D02E4FF1215017BFF7A85
:10095B0001794A1215777F051217411217CCE490D3
:07096B000194F00208BF2215
:100C21007BFF7A0079F21215AB40211217CC121713
:100C3100C27A017BD37D02E4FF1215017BFF7A00AA
:100C410079F51215777F0112174180D412178A7B2B
:100C5100FF7A0179051215AB40347BFF7A017910D7
:100C61001215AB40297A017BDD7D02E4FF121501EB
:100C71007BFF7A01791B1215777F011217417BFFE8
:100C81007A0179331215777F0112174180C112174A
:100C91008A7BFF7A0079F21215AB401B7A017BE85F
:100CA1007D02E4FF1215017BFF7A0179F4121577B9
:100CB1007F0212174180DA12178A7BFF7A0179FFCE
:100CC1001215777A027B0A7D02E4FF1215017F0279
:100CD1001217417BFF7A0279171215777BFF7A028F
:100CE100792E1215AB50F59001B2E0FF9001A5E00D
:100CF100FD900196E0FB900195E09001C4F0900118
:100D0100E4E09001C5F09001EDE09001C6F0120918
:100D11007212178A7F1A1217B77BFF7A0279301283
:100D210015AB50F51217C27A027B367D02E4FF1231
:100D310015017F021217411217CCE4900194F022A1
:1004A80020A05A12000E20A05430A0FD1217C2D26C
:1004B80001900197E004F0E0C394054009E4F0C21C
:1004C800017F0C12179A900197E024FE60131460C4
:1004D8001914601F240370257F0F12179A7F8A80D2
:1004E800197F0F12179A7F9A80107F0F12179A7F21
:1004F8008E80077F0F12179A7F9E12179A20A113DA
:1005080012000E20A10D30A1FD1217C2C2017F0CEE
:1005180012179A30A2030205C412000E30A2030279
:1005280005C430A2FD1217C2300122900197E0B431
:10053800011B9001A5E004F07F0C12179A121368B2
:10054800120FB69001A5E0B464037463F030012281
:10055800900197E0B4021B9001B2E004F07F0C1206
:10056800179A121368120FB69001B2E0B4640374BC
:1005780063F0300122900197E0B4031B900195E0ED
:1005880004F07F0C12179A121368120FB690019597
:10059800E0B464037463F0300122900197E0B4047E
:1005A8001B900196E004F07F0C12179A1213681240
:1005B8000FB6900196E0B464037463F030A30302AD
:1005C800066912000E30A30302066930A3FD121754
:1005D800C2300121900197E0B4011A9001A5E014FE
:1005E800F07F0C12179A121368120FB69001A5E04B
:1005F800B4FF02E4F0300121900197E0B4021A90B0
:1006080001B2E014F07F0C12179A121368120FB699
:100618009001B2E0B4FF02E4F0300121900197E0CC
:10062800B4031A900195E014F07F0C12179A121374
:1006380068120FB6900195E0B4FF02E4F030012192
:10064800900197E0B4041A900196E014F07F0C1220
:10065800179A121368120FB6900196E0B4FF02E4DD
:02066800F0227E
:100AE2007BFF7A0279441215AB50391217CC1217D8
:100AF200C27A027B4A7D02E4FF1215017BFF7A0172
:100B020079FF1215777F0112174112178A7BFF7A3C
:100B12000279561215777F031217419001C07401B2
:100B2200F01217CC7B017A0179981215AB400302BF
:100B32000BD09001C0E064016003020BD01217C217
:100B42007A027B617D02E4FF1215017F02121741D6
:100B52001217CC7BFF7A02796A1215AB5009121771
:100B6200C27A027B70804A7BFF7A0279751215ABDA
:100B720050151217C27A027B7C7D02E4FF12150126
:100B82007F0212174180397BFF7A0279811215ABFD
:100B920050181217C27A027B817D02E4FF121501FE
:100BA2007F02121741120C2180161217C27A027BA1
:100BB200897D02E4FF1215017F021217411217CC40
:100BC2001217C27BFF7A0179F412157780357B0107
:100BD2007A0179981215AB40459001C0E06401702A
:100BE2003D1217C27A027B9E7D02E4FF1215017F3D
:100BF200021217411217CC7BFF7A0179F412157792
:100C02001217C27A027B927D02E4FF1215017F0263
:0F0C120012174112178AE49001C0F01217CC227A
:10111C009001B27414F09001A5742BF090019674A8
:10112C001EF09001957450F012177A12172C7BDC7C
:10113C007D01E4FF1214C07BDC7D01E4FF12147A04
:10114C0012178A1216CD1215407A027BA77D01E484
:10115C00FF1215017F021217411217CC1217C29001
:10116C0001947401F0C201120AE2200143121368C7
:10117C00120FB69001A5E0FF9001E4E0FED39F5062
:10118C00229001B2E0FFEEC39F4018900195E0FF62
:10119C009001EDE0FED39F500A900196E0FFEEC364
:1011AC009F500A900194E0B40103120C211204A880
:0511BC001204A880B23E
:0816FF00C2A5D2A68F807F0571
:0F1707001FEF600BE4FEEEC3940650F40E80F764
:0117160022B0
:10171700AD07AF051DEF600C7FF51217077FF512B8
:05172700170780EE220F
:1016B200AD07AC06ED1DAE0470011C4E600C7FF54B
:0B16C2001217077FF512170780EA22BD
:10176900C2A4D2A5D2A67580FFE58020E7FBC2A658
:01177900224D
:0F179A00121769C2A41216FFC2A67F0502170715
:0E0026009001FBE0FEA3E0F5828E83E493FFE1
:0F003400121769D2A41216FFC2A67F0502170782
:101540007F0A1217177F3012179A7F321217077F00
:101550003012179A7F141217077F0C12179A7F32D6
:101560001217077F0112179A7F0F1217177F0612A3
:07157000179A7F32021707F2
:1016CD007F3012179A7F4012179AE4FFFE0FBF006A
:0816DD00010EEF64104E70F5E0
:0116E50022E2
:1015DD00AE07ED24FE600F14601114601324037028
:1015ED0016EE2480800DEE24908008EE2488800372
:1015FD00EE2498FF12179AE4FF120034E4FF020064
:01160D0034A8
:10150100AE078B828A83ED24FE600F146011146094
:101511001324037016EE2480800DEE24908008EED3
:1015210024888003EE2498FF12179AE493FFD39442
:0F15310000400B120034A37FFA12170780ED223F
:0A17CC007F0112179A7F0F02171712
:0812ED009001FBEEF0A3EFF00D
:1012F500E4FBFAEB2480FF12179A7F8012179AE419
:10130500FCFD1200269001FCE004F070069001FB44
:10131500E004F00DBD00010CED64104C70E40BBB56
:1013250000010AEB64204A70CAE4FAFBEB2480FF53
:1013350012179A7F8812179AE4FCFD120026900175
:10134500FCE004F070069001FBE004F00DBD000127
:101355000CED64104C70E40BBB00010AEB64204AF1
:0213650070CA4C
:011367002263
:0A17D6007F3612179A7F14021707DE
:10169300D3EF9400EE94004015E4FDE4FC0CECB4AD
:0E16A3001BFB0DEDB40AF4EF1F70E51E80E294
:0116B1002216
:0617A9001217AF1217AF8A
:0717AF000000007F18DFFEBF
:0117B6002210
:1013DC00E4FE9001E87402F020940A9001E8E0FF2A
:1013EC0004F0EF70F31217A9E49001ECF0309402C2
:1013FC0004F09001E87402F030940A9001E8E0FFE8
:10140C0004F0EF70F39001E8E0640160169001F2D3
:10141C00E025E0FFF09001ECE04F9001F2F00EEED1
:03142C00B408AF52
:01142F00229A
:10106E00C2947FB47E00121693D2941217A912174F
:10107E00AFD29430940302111B9001E87402F02059
:10108E00940A9001E8E0FF04F0EF70F39001E87429
:10109E0002F030940A9001E8E0FF04F0EF70F312D2
:1010AE0013DC9001F2E09001EFF01213DC9001F2EC
:1010BE00E09001F0F01213DC9001F2E09001E6F006
:1010CE001213DC9001F2E09001E7F01213DC9001B4
:1010DE00F2E0FF9001EBF0D2949001E7E0FE900178
:1010EE00E6E0FD2EFC9001EFE0FB2CFCA3E0FA2CD9
:1010FE009001ECF0B50716A3EBF0A3EAF09001E433
:0E110E00EDF0A3EEF09001EBE09001E9F0228D
:10160E00745F75703A00745F646F776E3A00685F4E
:10161E0075703A00685F646F776E3A0074656D702E
:10162E0065723A0068696D69746974793A000D0AD9
:01163E0000AB
:0B02F000010C00020A000002080000E0
:0B066A009001D1EFF0A3EDF0A3EBF046
:100675007BFF7A16790E12163F9001D1E0FD75F0D9
:100685000A8424309001DBF0ED75F00A84E5F0244E
:1006950030A3F09001DBE0FF1217E09001DCE0FFF2
:1006A5001217E07F2E1217E07BFF7A1679141216C7
:1006B5003F9001D2E0FD75F00A8424309001DCF012
:1006C500ED75F00A84E5F02430A3F09001DCE0FF3D
:1006D5001217E09001DDE0FF1217E07F2E1217E000
:1006E5007BFF7A16791C12163F9001D3E0FD75F059
:1006F5000A8424309001DDF0ED75F00A84E5F024DC
:1007050030A3F09001DDE0FF1217E09001DEE0FF7D
:100715001217E07F251217E07F2E1217E07BFF7A74
:1007250016792212163F9001D4E0FD75F00A842453
:10073500309001DEF0ED75F00A84E5F02430A3F089
:100745009001DEE0FF1217E09001DFE0FF1217E0F5
:100755007F251217E07F2E1217E07BFF7A16792A84
:1007650012163F9001D5E0FAA3E0FB7C007D0AFF5D
:10077500AE02120E73EF24309001D9F07C007D0A91
:10078500AF03AE02120E73ED2430A3F09001D9E051
:10079500FF1217E09001DAE0FF1217E07F2E121723
:1007A500E07BFF7A16793212163F9001D7E0FAA363
:1007B500E0FB7C007D0AFFAE02120E73EF24309041
:1007C50001DAF07C007D0AAF03AE02120E73ED2450
:1007D50030A3F09001DAE0FF1217E09001DBE0FFB3
:1007E5001217E07F251217E07F2E1217E07BFF7AA4
:0607F50016793C02163FDC
:10172C00438901758C4C758AD053B7FDD2B9D2AFB1
:05173C00D2A9D28C22AD
:10177A00438910758DB0758B3CD2AFD2ABD28E2215
:03000B000211C11E
:1011C100C0E0C0F0C083C082C0D075D000C000C0F4
:0D11D10001C002C003C004C005C006C00775
:1011DE009001D0E4F0758C4C758AD0050CE50C644A
:1011EE00287055F50C050BE50B7002050A12106EF2
:1011FE00E50B643C450A700C900194E07006F50A0C
:10120E00F50B04F09001B2E0FD900195E0FB90012A
:10121E0096E09001D4F09001E4E0FF9001D5E4F067
:10122E00A3EFF09001EDE0FF9001D7E4F0A3EFF013
:08123E009001A5E0FF12066A11
:10124600D007D006D005D004D003D002D001D000FC
:0B125600D0D0D082D083D0F0D0E032A6
:03001B000216705A
:08167000C0E0C083C082C0D0BD
:10167800758DB0758B3C9001E2E004F0E0B4140283
:02168800E4F08C
:09168A00D0D0D082D083D0E03230
:10174100E4F50AF50BEFFDC3E50B9D7480F8650A1E
:041751009840F222A8
:10175500E4F508F509EFFDC3E5099D7480F8650812
:041765009840F22294
:1002FB0060C80000000000000000000000000000CB
:10030B0000000000000000000000000000000000E2
:10031B0000000000000000000000000000000000D2
:10032B0000000000000000000000000000000000C2
:10033B0000000000000000000000000000000000B2
:10034B0000000000000000000000000000000000A2
:10035B000000000000000000000000000000000092
:10036B000000000000000000000000000000000082
:10037B000000000000000000000000000000000072
:10038B000000000000000000000000000000000062
:10039B000000000000000000000000000000000052
:1003AB000000000000000000000000000000000042
:1003BB000000000000000000000000006064012F3E
:1003CB000000000000000000000000000000000022
:1003DB000000000000000000000000000000000012
:1003EB000000000000000000000000000000000002
:1003FB0000000000000000000000000000000000F2
:10040B0000000000000000000000000000000000E1
:10041B0000000000000000000000000000000000D1
:10042B0000000000606400CA000000000000000033
:10043B0000000000000000000000000000000000B1
:10044B0000000000000000000000000000000000A1
:10045B000000000000000000000000000000000091
:10046B000000000000000000000000000000000081
:10047B000000000000000000000000000000000071
:10048B00000000000000000000000000410193008C
:0C049B004100C80041012E004100C900D2
:10147A00759A50AE038E9CEFB40105438E08800B1B
:10148A00EF7005538EF780037FFF22EDB401054309
:10149A008E04800BED7005538EFB80037FFE224382
:1014AA008E1043B60143B50143B60143B50143AFBC
:0614BA0001D2AF7F002209
:0B17B7008F9BE59A30E1FB539AFD2266
:0B1577009001CDEBF0A3EAF0A3E9F037
:10158200E4FFC2A99001CDE0FBA3E0FAA3E0F98F4A
:1015920082758300120E24600DF59BE59A30E1FB03
:0815A200539AFD0F80DED2A96F
:0115AA00221E
:1014C000759850AE038E9CEFB40105438780800B66
:1014D000EF700553877F80037FFF22EDB401054342
:1014E0008E04800BED7005538EFB80037FFE22433C
:1014F0008E01438E1043B710C2BCD2ACD2AF7F0076
:0115000022C8
:0A17E000C2998F993099FDC2992239
:0B163F009001DFEBF0A3EAF0A3E9F05C
:10164A00E4FFC2A99001DFE0FBA3E0FAA3E0F98F6F
:10165A0082758300120E24600AF5993099FDC299A9
:05166A000F80E1D2A990
:01166F002258
:030023000216E6DC
:0916E600C0E0C0D075D000C007BF
:0916EF00309806C2ACC298AF9914
:0716F800D007D0D0D0E03292
:0300430002143074
:0D143000C0E0C083C082C0D075D000C007EE
:10143D00E49001E3F053AFFEE59A30E022539AFEBB
:10144D00AF9B900193E02400F582E43400F583EF27
:10145D00F0900193E004F0E0D394C84002E4F0432F
:02146D00AF01CD
:0B146F00D007D0D0D082D083D0E03274
:0F178A007FC9900000E4F0A3DFFCE4900193F02E
:01179900222D
:1015AB009001C1EBF0A3EAF0A3E9F09001C1E0F9DF
:1015BB00A3E0FAA3E09001C7C9F0A3EAF0A3E9F016
:1015CB007B017A007900120EF7E94A4B6002D322B5
:0215DB00C32229
:10126D0002111CE493A3F8E493A34003F68001F26A
:10127D0008DFF48029E493A3F85407240CC8C33382
:10128D00C4540F4420C8834004F456800146F6DF51
:10129D00E4800B01020408102040809002B5E47E2A
:1012AD00019360BCA3FF543F30E509541FFEE49346
:1012BD00A360010ECF54C025E060A840B8E493A30D
:1012CD00FAE493A3F8E493A3C8C582C8CAC583CA38
:1012DD00F0A3C8C582C8CAC583CADFE9DEE780BEF0
:0104A7000054
:100E2400BB010CE58229F582E5833AF583E0225083
:100E340006E92582F8E622BBFE06E92582F8E222CD
:0D0E4400E58229F582E5833AF583E49322E7
:100E5100F8BB010DE58229F582E5833AF583E8F0D7
:100E6100225006E92582C8F622BBFE05E92582C883
:020E7100F2226B
:100E7300BC000BBE0029EF8DF084FFADF022E4CC63
:100E8300F875F008EF2FFFEE33FEEC33FCEE9DEC2C
:100E9300984005FCEE9DFE0FD5F0E9E4CEFD22ED72
:100EA300F8F5F0EE8420D21CFEADF075F008EF2FBC
:100EB300FFED33FD4007985006D5F0F222C398FDAD
:050EC3000FD5F0EA224A
:100EF7009001C4EBF0A3EAF0A3E9F0A3E0FBA3E0C1
:100F0700FAA3E0F9120EC87003020FA39001C4E020
:100F1700FBA3E0FAA3E0F9120EC87003020FAF902B
:100F270001C7E0F9A3E0FAA3E0A3C9F0A3EAF0A39D
:100F3700E9F09001C4A3E0FAA3E0F99001CDEBF04A
:100F4700A3EAF0A3E9F09001CAE0FBA3E0FAA3E06B
:100F5700F9120EC8FF60269001CDE0FBA3E0FAA3CB
:100F6700E0F9120EC86F70159001CB75F001120EE3
:100F7700E19001CEE475F001120EE180C99001CA3B
:100F8700E0FBA3E0FAA3E0F9120EC87002800D900F
:100F970001C5E475F001120EE1020F139001C4E0E0
:0F0FA700FBA3E0FAA3E0F9227B007A0079002295
:100EC800BB010689828A83E0225002E722BBFE0228
:090ED800E32289828A83E493225B
:100EE100C5F0F8A3E028F0C5F0F8E582158270029C
:060EF1001583E038F02239
:00000001FF
